:020000040800F2
:10000000D0450020D90100087B1F0008DB11000843
:10001000771F0008830C0008D1530008000000007F
:10002000000000000000000000000000B5460008CD
:10003000330F0008000000005F280008D54C0008BE
:10004000F3010008F3010008F3010008F3010008C0
:10005000F3010008F3010008F3010008F3010008B0
:10006000F3010008F3010008F3010008F3010008A0
:10007000110D0008F3010008F3010008F301000866
:10008000F3010008F3010008F3010008F301000880
:10009000F3010008F3010008F3010008F301000870
:1000A000F3010008F3010008F3010008F301000860
:1000B000F3010008F3010008F3010008F301000850
:1000C000F3010008F3010008F3010008F301000840
:1000D000F3010008D1500008F3010008F301000803
:1000E000F3010008F3010008F301000800F002F832
:1000F00000F062F80AA090E8000C82448344AAF160
:100100000107DA4501D100F057F8AFF2090EBAE85D
:100110000F0013F0010F18BFFB1A43F0010318473B
:10012000B8910000D891000010F8013B0A4413F088
:10013000030408BF10F8014B1D1108BF10F8015B44
:10014000641E05D010F8016B641E01F8016BF9D133
:10015000002D15D010F8014B03F00C030C2BA1EB74
:1001600004040ABF10F8013BA4EB8314A4EB03249E
:1001700005F1010314F8016B5B1E01F8016BF9D561
:10018000914238BF10F8013BD1D3704700230024BF
:1001900000250026103A28BF78C1FBD8520728BF97
:1001A00030C148BF0B6070471FB59DE8030000F0E9
:1001B0006BFA1FBD10B510BD00F0FBFA1146FFF73A
:1001C000F3FF05F09BFB00F019FB03B4FFF7F2FF10
:1001D00003BC00F049FB000009488047094800477C
:1001E000FEE7FEE7FEE7FEE7FEE7FEE7FEE7FEE7E7
:1001F000FEE7FEE704480549054A064B7047000044
:10020000D94C0008ED000008D0150020D045002092
:10021000D0250020D0250020004870477015002010
:1002200070B5A0FB0140B4F1805170F1000024BF13
:10023000002070BD204600F007F805001CBF2146D5
:1002400000F0B6F9284670BD70B5064600F000FA19
:10025000056806F10B0020F00704B4429CBF0020A3
:1002600070BD2B466A68BAB11068A04210D304F181
:10027000080188423CBF5068586007D35168101984
:1002800041601168091B016058601460101D70BD49
:1002900013465268002AE7D12146284600F0E0F9CB
:1002A0000028DED170BD70B50446051F00F0D0F9FE
:1002B0000068002C14BF446870BD002C18BFAC420D
:1002C0003CBF20466468F8D301680A18AA4218BFE8
:1002D000456003D12A680546114401602868411928
:1002E000A1421CBF6C6070BD6168696021680844F0
:1002F000286070BD70B50D460646041F00F0A8F9D1
:10030000D0F800C0C5B1E6B105F10B0020F007033D
:10031000AB423CBF002070BD2068984238BFDCF87B
:10032000042013D3C11A08292FD3E01840F8041B66
:100330002360FFF7B8FF28E03046FFF7B4FF002046
:1003400070BD2846BDE87040FFF77EBF002A18BF89
:10035000A2423CBF94465268F8D30119914216D18B
:1003600011680844984212D3C11A08293CBF206082
:10037000506808D35168E018416021681268114440
:10038000C91A01602360CCF80400201D70BD181F3D
:10039000FFF75AFF050007D021680A1F211D00F052
:1003A000CDF8201DFFF77FFF284670BD30B505460C
:1003B0000B462A4613F8014B12F8010B08B1A04274
:1003C000F8D01CB1002802D06D1CF1E7284630BDE2
:1003D00010B5431C02E010F8011B71B18107FAD17E
:1003E0004FF0013202C88C1A8C4314EAC211F9D0C2
:1003F000C01A0A0603D0C01E10BDC01A10BD0A04E0
:1004000001D0801E10BD0902FCD0401E10BD421E4E
:1004100012F8013F002BFBD111F8013B002B02F831
:10042000013BF9D17047032A40F2308010F0030CF1
:1004300000F0158011F8013BBCF1020F624498BF37
:1004400011F801CB00F8013B38BF11F8013BA2F1D4
:10045000040298BF00F801CB38BF00F8013B11F04F
:10046000030300F06B80083AC0F0088051F8043BA9
:10047000083A51F804CBA0E80810F5E7121D5CBF5C
:1004800051F8043B40F8043BAFF30080D20724BF8F
:1004900011F8013B11F801CB48BF11F8012B24BF23
:1004A00000F8013B00F801CB48BF00F8012B704772
:1004B000431A28BF9A427FF6B6AF032A104411446C
:1004C00040F2268010F0030F1EBF11F8013D521EAE
:1004D00000F8013D10F0030F7FF4F6AF11F00303B5
:1004E00000F01B81083AC0F00B8051F8043D083A37
:1004F00051F804CD40F8043D40F804CDFFF7F3BFB8
:10050000121D5CBF51F8043D40F8043DAFF300807C
:10051000D20724BF11F8013D11F801CD48BF11F8F1
:10052000012C24BF00F8013D00F801CD48BF00F8C0
:10053000012C704701B5FFF776FF01BD10B5203AD9
:10054000C0F00B80B1E81850203AA0E81850B1E88C
:100550001850A0E81850BFF4F5AF5FEA027C24BF42
:10056000B1E81850A0E8185044BF18C918C0BDE839
:1005700010405FEA827C24BF51F8043B40F8043B02
:1005800008BF7047D20728BF31F8023B48BF11F8B7
:10059000012B28BF20F8023B48BF00F8012B704711
:1005A00002F0FF0343EA032242EA024200F002B8EB
:1005B0004FF000020429C0F0128010F0030C00F08C
:1005C0001B80CCF1040CBCF1020F18BF00F8012B0A
:1005D000A8BF20F8022BA1EB0C0100F00DB85FEAD8
:1005E000C17C24BF00F8012B00F8012B48BF00F8A4
:1005F000012B70474FF0000200B513469446964613
:10060000203922BFA0E80C50A0E80C50B1F1200125
:10061000BFF4F7AF090728BFA0E80C5048BF0CC0D3
:100620005DF804EB890028BF40F8042B08BF704731
:1006300048BF20F8022B11F0804F18BF00F8012BA3
:10064000704770477047704700487047701500202A
:100650000048704778150020704770477047704712
:1006600038B504460A4600206946AFF300800028EA
:1006700008BF38BD02460099204600F078F80120F6
:1006800038BD012000F08DB8F8B5AFF30080054605
:1006900000200C46102000BF0646A819A0420DD924
:1006A000324669460020AFF30080070008BF00F023
:1006B00078F80098A04218BF0546C419FFF7C8FF94
:1006C00005600746F01D20F007004619284600F097
:1006D0000AF8B44208BFF8BDA21B31463868BDE82D
:1006E000F84000F044B800210160C0E901107047F3
:1006F00010207047431A28BF9A427FF61FAF10445C
:1007000010F0030F11441EBF11F8013D521E00F8F6
:10071000013D10F0030F7FF4F6AF103AC0F00A80ED
:1007200010B531E91850103A20E91850BFF4F9AF6C
:10073000BDE81040530724BF31E9081020E9081034
:1007400044BF51F8043D40F8043D12F0030F08BFC8
:100750007047D20728BF31F8023D48BF11F8012C7D
:1007600028BF20F8023D48BF00F8012C704703461F
:1007700040688C46002818BF88423CBF034640684A
:10078000F8D318681844884207D00CF1030020F011
:100790000700001D411A521A0146081D0A60FFF7A2
:1007A00082BD10B500F038F8BDE8104000F02FB859
:1007B00070477546FFF748FFAE4605006946534649
:1007C00020F00700854618B020B5FFF713FDBDE8FF
:1007D00020404FF000064FF000074FF000084FF0A8
:1007E000000B21F00701AC46ACE8C009ACE8C00939
:1007F000ACE8C009ACE8C0098D46704710B50446A6
:10080000AFF300802046BDE81040FFF7DEBC0028B3
:1008100001D000F029B8704710B5012805D000219B
:1008200003A000F027F8012010BD09A1F8E700009F
:1008300053494752544D454D3A204F7574206F66C9
:100840002068656170206D656D6F72790000000031
:100850003A2048656170206D656D6F727920636F15
:10086000727275707465640001491820ABBEFEE7B2
:100870002600020070B505460C460A2000E06D1CFB
:1008800000F011F835B128780028F8D102E0641C96
:1008900000F009F814B120780028F8D1BDE87040C4
:1008A0000A20AFF3008008B569468DF800000320E8
:1008B000ABBE08BD21B1826842F00102826003E054
:1008C000826822F0010282607047000010B5044681
:1008D0001248844208D10121401503F03FFD002158
:1008E000601503F03BFD17E00D48844208D101215B
:1008F000001503F033FD0021201503F02FFD0BE060
:100900000848844208D10121C80303F027FD0021D3
:100910004FF4004003F022FD10BD00000024014010
:1009200000280140003C0140014600208A6802F096
:1009300004020AB1012000E0002070470146C86CA3
:1009400080B270470246002013680B400BB10120B3
:1009500000E000207047014600208A6802F008028B
:100960000AB1012000E000207047000030B50246C7
:100970000020002350680F4C20400D790C6844EA99
:1009800005242043506090680B4C2040D1E902546C
:100990002C434D7944EA450420439060D06A20F40A
:1009A00070000C7C641EE4B2234340EA0350D06222
:1009B00030BD0000FFFEF0FFFDF7F1FFF0B504468B
:1009C0000D4600200021092D11DDE068A5F10A0681
:1009D00006EB4607072606FA07F18843A5F10A0643
:1009E00006EB460603FA06F10843E0600CE02069D6
:1009F00005EB4507072606FA07F1884305EB450690
:100A000003FA06F108432061072A0FDA606B561ECD
:100A100006EB86071F2606FA07F18843561E06EBEB
:100A2000860605FA06F10843606322E00D2A0FDA14
:100A3000206BD61F06EB86071F2606FA07F18843B0
:100A4000D61F06EB860605FA06F10843206310E080
:100A5000E06AA2F10D0606EB86071F2606FA07F1EB
:100A60008843A2F10D0606EB860605FA06F1084357
:100A7000E062F0BD816841F008018160704721B1FA
:100A8000826842F4A002826003E0826822F4A0023D
:100A900082607047816841F00401816070472DE9F0
:100AA000F04104460D46174615B90020BDE8F08117
:100AB00007E0204600F03BF80646002E01DA3046FB
:100AC000F4E7D4E90010401AB0EBC50FF1D3226867
:100AD000A16888183A46294600F0A2F8206800EB81
:100AE000C50020600020E1E72DE9F04104460D46F5
:100AF000174615B90020BDE8F08107E0204600F058
:100B000016F80646002E01DA3046F4E7D4E9001064
:100B1000401AA842F2D32268A16888183A462946AA
:100B200000F098F82068284420600020E3E770B5C2
:100B3000044662685100A068FFF7DCFB054615B962
:100B40004FF0FF3070BDA56060684000606000201D
:100B5000F8E710B504462CB1A068FFF7A4FB2046C7
:100B6000FFF7A1FB10BD10B50C20FFF76DFB04468D
:100B70000CB9002010BD002020608020FFF764FB2E
:100B8000A060A06820B92046FFF78DFB0020F1E7A8
:100B9000802060602046EDE72DE9F14F0098D0F805
:100BA0000090B9F1000F02D10020BDE8F88F09F1E3
:100BB0000701C808FFF748FB05460DB90020F4E718
:100BC0004FEAD90B0098866800270EE00024A04663
:100BD00006E06006040E30780443761C08F1010834
:100BE000B8F1080FF5D3EC557F1C5F45EED309F043
:100BF000070ABAF1000F11D00024A04606E06006F3
:100C0000040E30780443761C08F10108D045F6D371
:100C1000CAF1080004FA00F005F80B002846C4E702
:100C2000F0B503460C461946002010E0802500264A
:100C30000AE0175C2F4017B101270F7001E0002771
:100C40000F70491C6D10761C082EF2D3401CA04278
:100C5000ECD3F0BDF0B5034618464E1E012707FA47
:100C600006F400250AE002EA040616B10126067021
:100C700001E000260670401C64086D1C8D42F2D312
:100C8000F0BD00BFFEE72DE9F04107468846154656
:100C90000421052000F02DF80021012004F0E0FBE4
:100CA00080210A2003F02EFD002405E0395D092093
:100CB00004F0D6FB601CC4B24445F7DB03210120DD
:100CC00004F0CEFBFF2400BF052003F0A5FC064680
:100CD000601EC4B21CB106F004000028F4D022202B
:100CE00003F09AFC2870212003F096FC6870BDE8A0
:100CF000F08170B505460C460026284603F08CFCB2
:100D0000064626EA0401284604F0AAFB70BD00004E
:100D100010B5202000F024F80021084804F018F84D
:100D20000021074800F02AF8202000F00BF80022EC
:100D30004FF40071014804F026F810BD002C01406A
:100D40001C00024000F0805111B10349086001E02D
:100D5000024948607047000004040240000002405D
:100D600000F0805111B10349086001E00249486078
:100D700070470000040402400000024021B10268F4
:100D800042F00102026004E002684FF6FE731A406E
:100D90000260704701684FF6FE7211400160002149
:100DA000016041608160C1604B49884208D14A4975
:100DB0000839496841F00F01474A083A51608AE012
:100DC00045491431884208D143490839496841F0FE
:100DD000F001414A083A51607DE03F49283188429C
:100DE00008D13D490839496841F470613A4A083AE6
:100DF000516070E038493C31884208D136490839A1
:100E0000496841F47041344A083A516063E032491C
:100E10005031884208D130490839496841F470217D
:100E20002D4A083A516056E02B496431884208D176
:100E300029490839496841F47001274A083A516044
:100E400049E025497831884208D123490839496861
:100E500041F07061204A083A51603CE01F498842E5
:100E600006D1011F096841F00F01021F116032E035
:100E70001A491431884208D11849091F096841F0FC
:100E8000F001164A121F116025E0144928318842EA
:100E900008D11249091F096841F470610F4A121FF5
:100EA000116018E00D493C31884208D10B49091FF7
:100EB000096841F47041094A121F11600BE00749AB
:100EC0005031884207D10549091F096841F4702152
:100ED000024A121F116070470800024008040240D5
:100EE0001AB103680B43036002E003688B4303609D
:100EF000704710B50022026847F6F0739A430C6AF7
:100F00008B6823430C6923434C6923438C69234337
:100F1000CC6923434C6A23438C6A23431A430260FF
:100F2000CB6843600B6883604B68C36010BD416051
:100F30007047704710B504F039FB4FF4E13004F00E
:100F4000D9F910BD2DE9F04104460D460A260027C7
:100F50002046FFF73DFA1FFA80F84146204604F08C
:100F6000D9F80CE00F48008830B129460E48FFF749
:100F70001DFA08B1012707E0642004F039FB301E98
:100F8000A6F10101CEB2EDD100BF002005490880D5
:100F900080210548FFF70CFB17B10020BDE8F08168
:100FA0000120FBE770080020340D00202DE9F041FE
:100FB00004466069401C50B900206061D4E90020FB
:100FC000E16801FB0200A1680844BDE8F081A56862
:100FD000E668D4F804802768606920B96D1E6069EE
:100FE000401C606105E06D1C206906446069401E7C
:100FF0006061206900280CDA002E17DA0026AD1E89
:1010000001202061A06988B9062D0FD16D1E092627
:101010000CE0BE420AD17E1EAD1E4FF0FF302061B3
:10102000A06918B9062D01D16D1E083E002D01DB07
:10103000002E01DA0020C8E7A560E66006FB075035
:1010400018F8000000F0800018B12046FFF7AEFF4E
:10105000BBE706FB07504044B7E710B501604260AC
:101060004C1E8460C4604FF0FF34046144618361AE
:1010700010BD2DE9F0410246002500260020002386
:101080000024002791F803C00CF00F0591F803C06D
:101090000CF0100CBCF1000F03D091F802C04CEA28
:1010A000050591F800C0BCF1000F31D01468002094
:1010B0002BE04FF0010C0CFA00F3B1F800C00CEA81
:1010C00003069E4220D183004FF00F0C0CFA03F769
:1010D000BC4305FA03FC4CEA040491F803C0BCF1DC
:1010E000280F06D14FF0010C0CFA00FCC2F814C016
:1010F0000AE091F803C0BCF1480F05D14FF0010C94
:101100000CFA00FCC2F810C0401C0828D1D31460AF
:10111000B1F800C0BCF1FF0F34DD546800202EE0B0
:1011200000F1080C4FF0010808FA0CF3B1F800C008
:101130000CEA03069E4221D183004FF00F0C0CFAFB
:1011400003F7BC4305FA03FC4CEA040491F803C01E
:10115000BCF1280F05D100F1080C08FA0CF8C2F810
:10116000148091F803C0BCF1480F07D100F1080CBE
:101170004FF0010808FA0CF8C2F81080401C08284B
:10118000CED35460BDE8F0810246002093680B4046
:101190000BB1012000E00020704741617047016100
:1011A00070470AB1016100E04161704730B5014606
:1011B00001F47F0201F47F43CCB2D209DB0142F09B
:1011C000FF124FF6FF752B432D022C436FF07F402B
:1011D00003EA02052540284030BD00BFFEE72DE9A7
:1011E000F04104460F460026002100252AB124B113
:1011F000012000EB4300B84202DD0020BDE8F08191
:1012000000212BE0505C4FEAE07C00EB1C7C4FEAB5
:101210002C1C6546BCF10A0F02DB05F1370C01E01E
:1012200005F1300C04F811C0505C4FEAE07C00EB93
:101230001C7C4FEA2C1CA0EB0C1C0CF0FF0C654630
:10124000BCF10A0F02DB05F1370C01E005F1300CAF
:1012500004EB410888F801C0B61C491C9942D1DB57
:101260000020A0553046C9E710B501210A48FFF714
:1012700096FF02210848FFF792FF00F037F801219E
:101280000548FFF78AFF00F031F802210248FFF716
:1012900084FF00F02BF810BD000C014010B50121B7
:1012A0000648FFF77AFF02210448FFF778FF00F0B5
:1012B0001DF801210148FFF772FF10BD000C01402D
:1012C00010B501210848FFF76AFF00F00FF802216E
:1012D0000548FFF764FF00F009F802210248FFF714
:1012E0005CFF00F003F810BD000C0140032000BFBC
:1012F000011EA0F10102D0B2FAD1704770B50446C8
:101300000D4629462046FFF73FFF40B900BF29465A
:101310002046FFF739FF0028F9D0002070BD0120DA
:10132000FCE710B50446412C25D108210846FFF7FB
:10133000E0FC3D21112004F093F88621172004F0F1
:101340008FF87F21262004F08BF81E212D2004F039
:1013500087F800212C2004F083F88D212A2004F046
:101360007FF83E212B2004F07BF8012004F011F9D6
:1013700001F077F801E0FF2010BD0020FCE7F0B598
:1013800002460C4600210023501E02FB00470125A7
:1013900004E0785D00F0010001446D1C9542F8DB2B
:1013A00004EB4200471E012605E0387800F00100FA
:1013B00003441744761C9642F7DB994202DC03EBA8
:1013C0000110F0BD01EB0310FBE700002DE9F8432D
:1013D0008046894614461F46002C01DB042C06DBA0
:1013E000FEF71AFF052101600020BDE8F8834046A2
:1013F00000F0CCF9064606FB06F0FEF725FF054691
:101400000DB90020F1E7084850F824302A46494633
:101410003046984723462A4631464046009700F01A
:101420004DF82846E1E70000A00800202DE9F74F1D
:1014300082B0824617464FF0000B504600F0A6F9E6
:10144000064606FB06F0FEF7FFFE04461CB9002028
:1014500005B0BDE8F08F4FF00008002523E04FF005
:101460000009154850F82530224630460399984720
:101470002B46224631465046009700F01FF8214681
:101480003046FFF77CFF8146D9450BDDCB46404611
:10149000FEF709FFA04606FB06F0FEF7D5FE044660
:1014A00004B902E06D1C042DD9DB00BF2046FEF715
:1014B000FAFE4046CCE70000A00800202DE9F05FCE
:1014C00081460D4617469A46DDF828B05A464946E9
:1014D000504600F033F9064600240AE006F0010009
:1014E00040F08408601C6843083007F800807608E4
:1014F000641C082CF2DB00240BE006F0010040F035
:101500008408072000EBC500001B07F80080760860
:10151000641C072CF1DBBDE8F09F10B504465CB1FC
:10152000E068FEF7C0FE2069FEF7BDFE6069FEF7C9
:10153000BAFE2046FEF7B7FE10BD01464B68C869EB
:10154000984203DACB69C868C25C0DE0D1E90103B7
:101550001844CB69984205DD4B68C869C01A0B690D
:101560001A5C01E000207047C869401CC861104641
:10157000F9E7F8B505462020FEF766FE04460CB9EB
:101580000020F8BD286820602979286800F0A0F8BC
:1015900060602979286800F0C5F8A060297928687A
:1015A00000F0A4F86168C0EBC100A061284602F019
:1015B00018FAE060E06820B92046FEF774FE0020CB
:1015C000DFE7A068FEF740FE2061206938B9E068D7
:1015D000FEF769FE2046FEF766FE0020D1E71021E7
:1015E0000120FEF71DFE6061606920B92046FFF70B
:1015F00094FF0020C5E720690090D4E902326168B9
:10160000606902F0F4FF0020E0612046B9E70000C5
:101610002DE9F04782460AEB8A002C4951F8204018
:1016200004FB04F0FEF710FE054615B90020BDE8E6
:10163000F08704FB04F12846FEF7BAFF00231A46A0
:101640002146284604F030FE2E464FF0000804E004
:10165000C020F071264408F10108B8F1070FF7DB4C
:10166000C4EBC4014819C0220821FEF799FF05EB1D
:10167000C401481C84220821FEF792FF281900F1BA
:1016800008064FF0000804E084203070264408F17A
:101690000108B8F1070FF7DB05F1080605EBC409EF
:1016A00001270DE007F0010040F09000307007F0D6
:1016B000010040F0900089F80000761CA1447F1CD6
:1016C000E01FB842EEDC2846B1E700005C84000869
:1016D00070B505460E463146284600F007F8041D51
:1016E000E01704EB5070C01070BD000030B502462A
:1016F0000B4602EB82000A4D55F82000441E02EB17
:10170000820005EB8000001D50F8231009B900206D
:1017100030BD04FB04F04038A0EBC100F8E7000046
:101720005C840008024602EB8200034B03EB80005E
:10173000001D50F8210070475C84000830B5034656
:10174000002B01DB032B01DD002030BD002901DD72
:10175000042901DD0020F8E7032A01D10020F4E785
:1017600001EB4100074D05EB800050F82240002CB2
:1017700001DA0020E9E7044800EB431050F82400A8
:10178000E3E700008085000800850008014601EBC2
:101790008100024A52F82000704700005C84000873
:1017A0000246034800EB0213481E53F8200070471E
:1017B000C084000830B50246064C04EB02154C1EEE
:1017C00055F8243001249C40601E032A00D14000BB
:1017D00030BD0000C084000810B50446012C01DBB8
:1017E000042C01DD002010BD2046FFF711FFFAE7B1
:1017F000F0B504460A460020002144E052F821508A
:10180000052D03DB52F82150AD1E284401F00105DF
:101810006DB3032936DBA51E8D4233DD52F821500E
:10182000032695FBF6F706FB175505BB52F821502A
:1018300095FBF6F38D1E52F825509D4222D14D1E88
:1018400052F825509D421DD14D1C52F825509D4205
:1018500018D18D1C52F825509D4213D1032905D073
:10186000CD1E52F825509E00B54201DB283009E01C
:101870000D1DA54205DACD1C52F825509E00B5423B
:1018800000DB2830491CA142B8DBF0BD2DE9F04156
:1018900002460B46002003EB020C0CF1010101256E
:1018A00035E001242FE091F800C011F8018C0CEA1A
:1018B000080CC2F1000811F808800CEA080CC2F10B
:1018C000FF3811F808800CEA080691F800C011F8FA
:1018D000018C4CEA080CC2F1000811F808804CEAAF
:1018E000080CC2F1FF3811F808804CEA08076FEACB
:1018F000070C4CEA060C0CF0010CBCF1000F00D0F8
:10190000C01C491C641C9442CDDB491C6D1C9542D3
:10191000C7DBBDE8F08170B505460B46187800F0CE
:10192000010020B14FF0FF301060012100E00021E4
:10193000012042F821001E78012410E0185D70405B
:1019400000F0010028B1491C012042F821001E5D71
:1019500004E052F82100401C42F82100641CAC4213
:10196000ECDB481C70BD70B505460B46187800F0DE
:10197000010020B14FF0FF301060012100E0002194
:10198000012042F821001E78012414E004FB05F038
:10199000185C704000F0010038B1491C012042F889
:1019A000210004FB05F01E5C04E052F82100401CFD
:1019B00042F82100641CAC42E8DB481C70BD2DE9F4
:1019C000F043ADF5327D04460F46002639462046E9
:1019D000FFF75CFF06444FF000080DE008FB0471C0
:1019E0006A462046FFF797FF814669464846FFF75B
:1019F000FFFE064408F10108A045EFDB00250BE0DF
:101A000079196A462046FFF7AEFF81466946484687
:101A1000FFF7EEFE06446D1CA542F1DB30460DF5E6
:101A2000327DBDE8F08300002DE9F04106460F4607
:101A300015469846002D01DB082D06DBFEF7ECFB72
:101A4000052101600020BDE8F08106FB06F0FEF7ED
:101A5000FBFB04460CB90020F5E7074850F8253099
:101A6000224639463046984743462A462146304664
:101A700000F033FA2046E6E7800800202DE9F74F12
:101A800082B081466FF00040019009FB09F63046B4
:101A9000FEF7DAFB05461DB9002005B0BDE8F08F62
:101AA0003046FEF7D1FB074627B92846FEF7FBFB79
:101AB0000020F2E7002436E000BF1E4850F8243032
:101AC0002A46484603999847824622462946484670
:101AD000049B00F002FA8244C82101FB0A6191FBD9
:101AE000F6F000EBD0714FEA610BABF13200002849
:101AF00001DB014600E04142052291FBF2F101EBDE
:101B000081014FEA410829464846FFF758FF8044C3
:101B10000198804506DACDF80480324629463846D9
:101B2000FEF781FC641C082CC6DB2846FEF7BBFBD5
:101B30003846B2E780080020F0B5034600200025B3
:101B40001AE0002415E00E7806F0800616B10E7833
:101B5000167007E00E78671907F0010787F0010794
:101B60007E401670167806F001063044491C521C5F
:101B7000641C9C42E7DB6D1C9D42E2DBF0BD70B54E
:101B8000002315E0002410E00D7805F0800515B164
:101B90000D78157006E00D7803F0010686F0010659
:101BA00075401570491C521C641C8442ECDB5B1CA4
:101BB0008342E7DB70BDF0B503460020002419E046
:101BC000002514E00E7806F0800616B10E78167027
:101BD00006E00E7804F0010787F001077E401670DA
:101BE000167806F001063044491C521C6D1C9D42BB
:101BF000E8DB641C9C42E3DBF0BDF0B5034600204B
:101C00001DE0002418E00D7805F0800515B10D7871
:101C100015700EE0032694FBF6F6054600EBD5772B
:101C200006EB670606F0010686F001060F787E4097
:101C30001670491C521C641C9C42E4DB401C9842F8
:101C4000DFDBF0BDF0B50346002000251EE00024D8
:101C500019E00E7806F0800616B10E7816700BE0CB
:101C6000032694FBF6F706FB17460EB9012600E0A3
:101C700000260F787E401670167806F00106304474
:101C8000491C521C641C9C42E3DB6D1C9D42DEDB44
:101C9000F0BDF0B5044600231EE0002019E00D78E9
:101CA00005F0800515B10D7815700FE000FB03F508
:101CB000032695FBF6F706FB175500FB035505F0C9
:101CC000010585F001050E7875401570491C521C00
:101CD000401CA042E3DB5B1CA342DEDBF0BDF0B5A1
:101CE0000346002000251FE000241AE00E7806F0CD
:101CF000800616B10E7816700CE06619032796FB65
:101D0000F7FC07FB1C660EB9012600E000260F78E1
:101D10007E401670167806F001063044491C521CAD
:101D2000641C9C42E2DB6D1C9D42DDDBF0BDF0B526
:101D3000044600231EE0002019E00D7805F0800520
:101D400015B10D7815700FE000FB03F5032695FB28
:101D5000F6F706FB1755C618354405F0010585F062
:101D600001050E7875401570491C521C401CA0429C
:101D7000E3DB5B1CA342DEDBF0BDF0B504460020D4
:101D8000002323E000251EE00E7806F0800616B141
:101D90000E78167010E0032795FBF7F71E4603EB4D
:101DA000D67C07EB6C0707F0010787F0010791F875
:101DB00000C087EA0C071770167806F00106304459
:101DC000491C521C6D1CA542DEDB5B1CA342D9DB07
:101DD000F0BDF0B505460020002425E0002320E0FA
:101DE0000E7806F0800616B10E78167012E003FB2E
:101DF00004F6032796FBF7FC07FB1C6703FB04F6BE
:101E000006F001063E440EB9012600E000260F78D8
:101E10007E401670167806F001063044491C521CAC
:101E20005B1CAB42DCDB641CAC42D7DBF0BDF0B525
:101E300005460020002422E000231DE00E7806F075
:101E4000800616B10E7816700FE003FB04F6032728
:101E500096FBF7FC07FB1C6603FB046606F0010615
:101E600086F001060F787E401670167806F001069F
:101E70003044491C521C5B1CAB42DFDB641CAC428F
:101E8000DADBF0BDF0B505460020002422E0002397
:101E90001DE00E7806F0800616B10E7816700FE081
:101EA00003FB04F6032796FBF7FC07FB1C661F19D0
:101EB0003E4406F0010686F001060F787E4016705B
:101EC000167806F001063044491C521C5B1CAB42DC
:101ED000DFDB641CAC42DADBF0BD2DE9F05F0446C9
:101EE0000E4692469B464FF000095946504602F076
:101EF0002DF8804600251AE008F0010018B109F11C
:101F00000209852700E0842704EBC400401E401B23
:101F10003754062D04DA04FB05F00830375403E08B
:101F2000681C6043083037544FEA58086D1C082D70
:101F3000E2DB00251AE008F0010018B109F10209FE
:101F4000852700E08427E01F284460430830375489
:101F500025B9072000EBC400375404E0062000EB4D
:101F6000C400401B37544FEA58086D1C072DE2DBB4
:101F70004846BDE8F09F00BFFEE7704770B50021FE
:101F800000230F22C47804B3154C246804F4E064E1
:101F9000C4F5E064210AC1F10403CA40447804FA9C
:101FA00003F184781440214309010E4C0678A155B1
:101FB000047804F01F050124AC4005786D11AD00D4
:101FC00005F1E025C5F8004109E0047804F01F059B
:101FD0000124AC40044D0678761145F8264070BDCA
:101FE0000CED00E000E400E080E100E070B50024CA
:101FF0000CE0002506E00020074901EBC50108556B
:10200000681CC5B2802DF6DB601CC4B2082CF0DB66
:1020100000F00EF970BD0000B408002010B50446B1
:102020001CB90021A62000F0FAF9012C03D10021EF
:10203000A72000F0F4F910BD10B504463CB900210A
:10204000C82000F0ECF90021A12000F0E8F9012CF3
:1020500007D10021C02000F0E2F90021A02000F00B
:10206000DEF910BDF0B514460B46CF1701EB5777DC
:10207000C7F3C702CF1701EB5777FF10A1EBC707D4
:10208000FEB20123B340DDB24CB1134B03EBC003EE
:102090009B5C2B43104F07EBC007BB541AE00E4B61
:1020A00003EBC0039B5CDB430B4F07EBC007BB5448
:1020B000094B03EBC0039B5C2B43074F07EBC007A7
:1020C000BB54054B03EBC0039B5CDB43024F07EBA8
:1020D000C007BB54F0BD0000B408002008B503F0F1
:1020E00065FA0121082002F029F90320ADF800006B
:1020F00014208DF8030003208DF8020069464B4838
:10210000FEF7B7FF03214948FFF749F82020ADF853
:10211000000010208DF8030003208DF802006946AE
:102120004248FEF7A6FF20214048FFF738F820215B
:102130003E48FFF732F8C82003F05AFA20213B4806
:10214000FFF72DF80021AE2000F069F900210846C4
:1021500000F065F90021102000F061F90021402015
:1021600000F05DF90021812000F059F90021CF2015
:1021700000F055F90021A12000F051F90021C820FC
:1021800000F04DF90021A62000F049F90021A82017
:1021900000F045F900213F2000F041F90021D32053
:1021A00000F03DF90021084600F039F90021D52062
:1021B00000F035F90021802000F031F90021D9200C
:1021C00000F02DF90021F12000F029F90021DA209A
:1021D00000F025F90021122000F021F90021DB2078
:1021E00000F01DF90021402000F019F90021202005
:1021F00000F015F90021022000F011F900218D20D6
:1022000000F00DF90021142000F009F90021A420AC
:1022100000F005F90021A62000F001F9FFF7E6FE25
:102220000021AF2000F0FBF808BD0000000C0140C9
:1022300070B500242BE004F1B001C8B2002100F019
:10224000EEF80021084600F0EAF80021102000F026
:10225000E6F8FFF709F8782002F02EFAFFF730F8D9
:10226000402002F029FAFFF72BF8002509E0094980
:1022700001EBC501085D02F01FFAFFF721F8681CA9
:10228000C5B2802DF3DBFFF709F8601CC4B2082C3F
:10229000D1DB70BDB40800202DE9FE4F074688460B
:1022A00092461C460197CDF80080082C02D14FF0D1
:1022B00006091FE02046E31704EB5373DB102146A9
:1022C0004FEAE47C04EB5C7C4FEAEC0CA4EBCC0C16
:1022D000BCF1000F02D04FF0010C01E04FF0000CF8
:1022E0006344224604EBD27C4FEA6C0C03FB0CF3F4
:1022F00003F0FF09AAF12000C6B200255EE0082C19
:1023000007D106EB46002F4901EB400010F805B05D
:102310001DE00C2C07D106EB46002B4901EB800099
:1023200010F805B013E0102C05D1284800EB06107A
:1023300010F805B00BE0182C07D106EBC6002449B5
:1023400001EB800010F805B001E0BDE8FE8F002031
:1023500002901CE00BF0010028B1414638460C9A6F
:10236000FFF780FE09E00C9808B9012000E000208A
:10237000024641463846FFF775FE4FEA6B0B08F1FF
:10238000010000F0FF080298401CC0B202900298C1
:102390000828DFDB781CC7B2082C0BD004EBD47103
:1023A0004A100199791A8A4204D1019F0098083095
:1023B000C0B20090DDF80080681CC5B24D459EDBC0
:1023C00000BFC2E72A66000852680008C66C000811
:1023D000B67200082DE9F84106460F4614461D4620
:1023E000DDF81C8013E0CDF8008022782B463946BA
:1023F0003046FFF751FF082D02D1B01DC6B205E0EF
:10240000284605EBD07106EB6101CEB2641C207842
:10241000202802DB20787E28E5DDBDE8F88170B554
:1024200005460C46FEF720FF782002F045F9FEF73E
:1024300047FF1CB1402002F03FF902E0002002F00B
:102440003BF9FEF73DFF284602F036F9FEF738FF6C
:10245000FEF724FF70BD10B503211420FEF749FCE0
:1024600010BD10B5142002F0D7F8044604F00300A4
:1024700018B90321142002F045F910BDF0B587B05A
:102480000546002708210846FEF733FC00210D20F1
:1024900002F0E6FF80210E20FEF72BFC93208DF842
:1024A000040020208DF8050006A801AB022201A936
:1024B00000900C2000F051F8064686B9002407E091
:1024C00001A8005D285501A8005D4740601CC4B20A
:1024D000042CF5DB01A8005DB84200D0FE26802167
:1024E0000E2002F00FF9304607B0F0BD2DE9F043A1
:1024F00087B006460F46904699468DF804608DF8E1
:102500000570002406E018F8041001AAA01C11545C
:10251000601CC4B2062CF6DB002407E019F8041096
:1025200001AA04F108001154601CC4B2062CF5DBAA
:1025300006A801AB0C2201A900900E2000F00DF8B6
:1025400005462DB9082002F067F800F0080000B930
:10255000FE25284607B0BDE8F0832DE9FE4F06466C
:10256000884691469A46DDF830B0FE200290002061
:10257000019000900C2E06D00E2E09D11220019051
:102580001020009005E0772001903020009000E0BE
:1025900000BF00BF019840F08001022002F060FF00
:1025A00080210420FEF7A5FB0021012002F058FF46
:1025B00080210A2002F0A6F8002505E018F8051091
:1025C000092002F04DFF6D1C4D45F7D33146012027
:1025D00002F046FF0C2E03D180210D2002F092F86C
:1025E0004FF4FA6500BF042002F016F804466D1E91
:1025F00035B104F0010018B9009820400028F2D04D
:1026000080210D20FEF775FB95B3062002F004F83B
:1026100000F01B0068BB002002900198204000F0F1
:10262000010008B1FF2002900C2E24D10A2001F0F5
:10263000F3FF04460C2001F0EFFF00F007072FB175
:10264000601E07EBC000CBF8000002E0E000CBF812
:10265000000004B90124122C00DD1224002505E03D
:10266000092001F0D9FF0AF805006D1CA542F7D337
:1026700001E0FE20029080210C2002F043F80021AE
:10268000012002F0EDFE0298BDE8FE8FF0B587B0A4
:1026900005460E4630208DF804008DF805500DF1EA
:1026A0000602022101A8FEF7EEFA06A801AB0422F9
:1026B00001A900900C20FFF750FF074667B9069864
:1026C000902809D1002404E001A8005D3055601C69
:1026D000C4B2102CF8DB00E0FE27384607B0F0BD8E
:1026E00070B588B005460C4608210846FEF701FB88
:1026F00007210D2002F0B4FE0321142002F002F89D
:102700008DF8085007A802AB012202A900900C2006
:10271000FFF723FF06464EB90798102806D19DF80B
:10272000080020709DF80900607000E0FE26304629
:1027300008B070BD10B502212A48FEF730FD012017
:1027400002F027FF02212748FEF727FD012002F0B3
:1027500020FF02212348FEF722FD0A2002F019FF84
:10276000022001F059FF80281ED181011E48FEF78A
:1027700016FD0A2002F00DFF4FF400511A48FEF733
:102780000CFD0A2002F005FF4FF400511648FEF739
:1027900006FD0A2002F0FDFE4FF400511248FEF73C
:1027A000FCFC0A2002F0F5FE0F21012002F058FE89
:1027B0003D21112002F054FE1E212D2002F050FE7A
:1027C00000212C2002F04CFE8D212A2002F048FE30
:1027D0003E212B2002F044FE4021152002F040FE55
:1027E000002010BD000801400010014070B588B005
:1027F000054693208DF8080070208DF80900002010
:102800008DF80E0000240BE0295D02AAA01C1154D3
:102810009DF80E00295D48408DF80E00601CC4B282
:10282000042CF1DB0DF10F02072102A8FEF72BFAB1
:1028300008210846FEF75DFA07A802AB092202A9A3
:1028400000900C20FFF789FE064626B90798182845
:1028500001D1002600E0FE26304608B070BD70476A
:1028600010B50446206928B14FF0FF31204600F032
:10287000E7F810BD4FF0FF31204600F001F8F8E70F
:102880002DE9F34F8BB0044600200790206938B142
:10289000FDF7C2FC0521016000200DB0BDE8F08FFE
:1028A0002068002802DB2068282805DDFDF7B4FC3D
:1028B000052101600020F0E72079002802DB207963
:1028C000032805DDFDF7A8FC052101600020E4E7F1
:1028D000204601F0A2F907460FB90020DDE738686D
:1028E0000A900A9801F07AFB81460A9801F0C2FB2F
:1028F0008246BAF1000F04D1384601F041F90020B8
:10290000CBE70023524649466846FEF7A6FB002661
:102910001FE0384601F044F90990802008904FF0FC
:10292000000B12E06846FEF741FB054605B97FE063
:10293000DDE90801084008B1012000E0002028700E
:102940000898401008900BF1010BBBF1080FE9DB70
:10295000761C7868B042DCDC002621E0384601F0C5
:102960001FF90990802008904FF0000B14E0684692
:10297000FEF71CFB054605B95AE0DDE908010840F1
:1029800008B1012000E0002040F002002870089803
:10299000401008900BF1010BBBF1080FE7DB761C30
:1029A000B868B042DADC384601F0EAF800270A9845
:1029B00001F0FCFA8346002608E06846FEF7F6FAC6
:1029C000054605B934E002202870761C5E45F4DB2C
:1029D0000C98801C58B909FB09F0FDF735FC8046BE
:1029E00009FB09F251464046FDF71DFD10E00C9829
:1029F000002806DA227951464846FFF73FF880461C
:102A000006E02379514648460C9AFFF70DF88046B8
:102A1000B8F1000F00D10BE0424649460A9800F099
:102A20004DF90790079810B94046FDF73CFC00BFF0
:102A3000384601F0A5F85046FDF735FC07982CE71D
:102A40002DE9F34F8DB0054600200890286938B96C
:102A5000FDF7E2FB0521016000200FB0BDE8F08F1B
:102A60002868002802DD2868042805DDFDF7D4FB6E
:102A7000052101600020F0E72879002802DB287991
:102A8000022805DDFDF7C8FB052101600020E4E711
:102A90002846FEF76EFD04460CB90020DDE72068ED
:102AA0000B900B98FEF772FE0C900B98FEF794FEBD
:102AB0008146B9F1000F04D12046FEF72EFD00201B
:102AC000CBE701234A4601A80C99FEF7C6FA4FF05E
:102AD00000082BE02046FEF730FD82464FF0800BC9
:102AE000A06930B16068401E404502D1A0690990DC
:102AF00001E00820099000200A9011E001A8FEF7EB
:102B000055FA074607B973E00BEA0A0008B101203D
:102B100000E0002038704FEA6B0B0A98401C0A90C6
:102B2000DDE909108842E9DB08F1010860684045E9
:102B3000D0DC4FF0000824E02046FEF7FEFC824681
:102B40004FF0800B0820099000200A9013E001A8A4
:102B5000FEF72CFA074607B94AE00BEA0A0008B16B
:102B6000012000E0002040F0020038704FEA6B0BBB
:102B70000A98401C0A90DDE909108842E7DB08F159
:102B80000108A0684045D7DC2046FEF7C6FC0024BB
:102B90000E98801C68B90C9901FB01F0FDF754FBFD
:102BA00006460C9800FB00F249463046FDF73BFC18
:102BB00010E00E98002806DA2A7949460B98FEF7AD
:102BC00035FC064606E02B7949460E9A0B98FEF72F
:102BD000FDFB064606B90BE03246DDE90B0100F0CD
:102BE0006DF80890089810B93046FDF75CFB00BFFF
:102BF0002046FEF792FC4846FDF755FB08982CE767
:102C00002DE9FC4105460E4617461C46DDF820809E
:102C100000233A4631462846CDE9004800F002F844
:102C2000BDE8FC812DE9F84F0746884691469A4653
:102C3000DDE90A5B37B9FDF7EFFA052101600020F5
:102C4000BDE8F88F022D07D0032D05D0FDF7E4FA7B
:102C5000052101600020F3E7BAF1000F05D04946D5
:102C6000404600F05BFF044604E04946404600F061
:102C700034FF04460CB90020E2E75B462A462146B1
:102C8000384601F0E7FF0646002E04DA204600F041
:102C900077FE0020D4E72046FFF7E2FD00902046B3
:102CA00000F06EFE0098CBE710B504462CB1A0688A
:102CB000FDF7F9FA2046FDF7F6FA10BD2DE9F041CF
:102CC00005460E4617460C20FDF7BEFA044614B919
:102CD0000020BDE8F08125606660A7602046F8E727
:102CE00010B5044644B1A068FDF7DDFAE068FDF7D1
:102CF00030FF2046FDF7D7FA10BD2DE9F04106461A
:102D00000D4617463A462946304600F020F930B1C4
:102D1000FDF782FA052101600020BDE8F081142052
:102D2000FDF792FA04460CB90020F6E726706560BC
:102D30000020A060002D0FDD2846FDF785FAA06079
:102D4000A06820B92046FDF7AEFA0020E5E72A4644
:102D50003946A068FDF767FB0020E060206120464F
:102D6000DBE72DE9F04180460C4615461E4632460B
:102D700029462046FFF7C1FF07461FB94FF0FF3035
:102D8000BDE8F0813946404600F002F80020F7E740
:102D9000C26812B98160C16002E0C2681161C1609D
:102DA00000220A6170472DE9F84F83468946DBF817
:102DB000004099F80410D9F8000001F06FF8009075
:102DC0000098C500A54206DAFDF726FA0221016047
:102DD000C81EBDE8F88FA54201D10020F9E7281BE5
:102DE000042805DC291B00225846FDF77DFEF0E78C
:102DF00004F10B00C11700EB5171CE10C4EBC601FA
:102E000000225846FDF770FE8046B8F1000F01DA47
:102E10004046DEE70098A0EB060ABAF1000F15DD88
:102E2000002711E007F0010008B1112000E0EC20BC
:102E3000024608215846FDF757FE8046B8F1000FBC
:102E400001DA4046C5E77F1C5745EBDB0020C0E7B1
:102E50002DE9F34F81B089460198066899F804106E
:102E6000D9F80000FEF742FC05462846E91705EBB5
:102E700051714FEAE10AB54206DAFDF7CDF90221B8
:102E80000160C81EBDE8FE8FB54201D10020F9E700
:102E90000121D9F8000001EB4007A81BB84205DC6E
:102EA000A91B00220198FDF71FFEEBE73E44F01D31
:102EB000C11700EB5171CC10A5EBC400002808DD50
:102EC000C6EBC4000744544506D1A5EBC400074433
:102ED00002E0C6EBC4000744002239460198FDF722
:102EE00003FE8046B8F1000F01DA4046CAE7AAEBBC
:102EF000040000900098002827DD4FF0000B12E03E
:102F00000BF0010008B1112000E0EC20024608217E
:102F10000198FDF7E9FD8046B8F1000F01DA40465F
:102F2000B0E70BF1010B00988345E9DBA5EBCA077D
:102F3000002F0ADD002239460198FDF7D5FD8046B5
:102F4000B8F1000F01DA40469CE700209AE770B51F
:102F500005460C461646062D01D1002C01DB002C3F
:102F600002DC4FF0FF3070BD681C092822D2DFE878
:102F700000F020050A140F16181A1C0031462046CE
:102F800000F068F8EFE73146204600F017F8EAE76E
:102F90003146204600F036F8E5E70020E3E7002060
:102FA000E1E70020DFE70020DDE7204600F022F81F
:102FB000D9E700BF00BF4FF0FF30D4E710B503469C
:102FC0000A4600210FE0505C00F0800010B14FF085
:102FD000FF3002E0505C064C2056002802DA4FF029
:102FE000FF3010BD491C9942EDDB0020F9E70000DD
:102FF000ED8500080146012902D04FF0FF307047EF
:103000000020FCE730B503460C4603F0010010B188
:103010004FF0FF3030BD002118E0481C205C655C9B
:1030200040EA052248F2401082420BD349F6FC7078
:10303000824203D94EF24000824203D34EF6BF30A3
:10304000824202D94FF0FF30E4E7891C9942E4DB69
:103050000020DFE703460A46002109E0505C3028E3
:1030600002DB505C392802DD4FF0FF307047491C0D
:103070009942F3DB0020F9E72DE9F04106460F46BF
:10308000304600F05EFC0546304600F0C9FCA84220
:1030900003DA2946304600F061FD00BF00203860A9
:1030A0003946304600F020F80446002C03DA4FF091
:1030B000FF30BDE8F08104F1070831794FEAE8728A
:1030C00008EB5272D01000F051FF0546304600F078
:1030D000A7FCA84204DA2946304600F03FFDDDE7B0
:1030E00000BF00BF0020E4E72DE9F0410446884618
:1030F0000027A6680EE0414630462369226800F0AA
:103100001AF80546002D03DA4FF0FF30BDE8F081D4
:103110002F443669002EEED13846F7E702460020EC
:10312000002105E00002C1F10303D35C1843491CF0
:103130000429F7DB70472DE9F84F04460F46914606
:1031400098464FF0000AD34638680090B8F1000F57
:1031500006D094F900004946FEF72CFB054605E031
:1031600094F90000494600F05FFF054675B36068BA
:10317000A84233DD94F900002946A268FFF7BDFD9F
:103180008246BAF1000F00D172E0A3685A19636851
:10319000591B94F90000FFF7B0FD8346BBF1000F07
:1031A00000D165E043464A4639465046FFF7C3FF23
:1031B0000646002E00DA5BE043464A46394658464A
:1031C000FFF7B9FF0646002E01DA51E006E050464F
:1031D000FFF786FD5846FFF783FD45E0002694F98A
:1031E0000000082838D2DFE800F0040C141C242B5F
:1031F000373143464A463946204600F001FA064632
:103200002BE043464A463946204600F08FF80646F2
:1032100023E043464A463946204600F032F8064647
:103220001BE043464A463946204600F071F90646FF
:1032300013E042463946204600F08DFA06460CE07F
:103240003946204600F018F9064606E03946204681
:1032500000F043F9064600E000BF00BF002E03DA8D
:103260004FF0FF30BDE8F88F39680098081AF9E789
:103270005046FFF735FD5846FFF732FD4FF0FF305F
:10328000F0E72DE9F04705460F4616469846B8F197
:10329000000F23D0032E06DAFCF7BEFF02210160E7
:1032A000C81EBDE8F087711E02223846FDF71CFCDF
:1032B0000446002C02DA4FF0FF30F2E731460220DC
:1032C000FEF76EFA8146494638466A68FDF70CFCFF
:1032D0000446002C1DDA4FF0FF30E2E704221146CD
:1032E0003846FDF701FC0446002C02DA4FF0FF30AF
:1032F000D7E73146022000F07BFE8146494638463A
:103300006A68FDF7F1FB0446002C02DA4FF0FF304B
:10331000C7E73846D5E90112FDF7C1FB0446002C8A
:1033200002DA4FF0FF30BCE70020BAE72DE9F84F92
:1033300004468A4690469B46BBF1000F25D0B8F163
:10334000020F06DAFCF768FF02210160C81EBDE823
:10335000F88FA8F1010101225046FDF7C5FB064692
:10336000002E02DA4FF0FF30F1E741460120FEF770
:1033700017FA0090014650466268FDF7B5FB064615
:10338000002E1DDA4FF0FF30E1E702220421504603
:10339000FDF7AAFB0646002E02DA4FF0FF30D6E713
:1033A0004146012000F024FE00900146504662682C
:1033B000FDF79AFB0646002E02DA4FF0FF30C6E713
:1033C000606800EBD0714F10002530E0A06810F865
:1033D000150000F0800010B14FF0FF3004E0A0684D
:1033E00010F8150023490856C0EB001000EB400907
:1033F000012101EB4501A068405C00F0800010B1A4
:103400004FF0FF3006E0012101EB4501A068405C70
:103410001849085681444A460B215046FDF764FB83
:103420000646002E02DA4FF0FF3090E76D1CBD42D9
:10343000CCDB207900F00100C8B1A06810F81700BB
:1034400000F0800010B14FF0FF3004E0A06810F8E9
:1034500017000849085681464A4606215046FDF79E
:1034600043FB0646002E02DA4FF0FF306FE70020E4
:103470006DE70000ED8500082DE9F047804689469C
:10348000D8F80800FFF74AFE0446802C02D2012635
:10349000274609E0B4F5804F03D2022604F5004721
:1034A00002E0032604F54027072204214846FDF7E1
:1034B0001BFB0546002D03DA4FF0FF30BDE8F08717
:1034C000F1003A464846FDF70FFB0546002D02DAAB
:1034D0004FF0FF30F2E70020F0E770B504460D46EC
:1034E000092204212846FDF7FFFA0646002E02DADB
:1034F0004FF0FF3070BD01212846A268FDF7CFFADA
:103500000646002E02DA4FF0FF30F3E70020F1E725
:103510002DE9F84F0546894690469A46BAF1000FC4
:1035200026D0B8F1020F06DAFCF776FE0221016020
:10353000C81EBDE8F88FA8F1010103224846FDF737
:10354000D3FA0446002C02DA4FF0FF30F1E741468F
:103550000320FEF725F90090686842084846009964
:10356000FDF7C2FA0446002C1EDA4FF0FF30E0E708
:10357000082204214846FDF7B7FA0446002C02DA77
:103580004FF0FF30D5E74146032000F031FD0090B9
:103590006868420848460099FDF7A6FA0446002CE0
:1035A00002DA4FF0FF30C4E7002724E0781CA96856
:1035B000085CC95D40EA012649F6FC70864203D8E2
:1035C000A6F50146403E02E0A6F54146403E300ADF
:1035D00000EB40004FEA801BF0B200EB0B063246D6
:1035E0000D214846FDF780FA0446002C02DA4FF020
:1035F000FF309EE7BF1C6868B842D7DC002098E720
:103600002DE9F84F04468A4690469B46BBF1000FD1
:103610001FD0B8F1010F0CDDA8F1010100225046C6
:10362000FDF762FA0546002D03DA4FF0FF30BDE8E2
:10363000F88F41460020FEF7B3F80090014650464F
:103640006268FDF751FA0546002D1DDA4FF0FF3094
:10365000EDE7012204215046FDF746FA0546002D0C
:1036600002DA4FF0FF30E2E74146002000F0C0FCF4
:103670000090014650466268FDF736FA0546002D77
:1036800002DA4FF0FF30D2E70321606890FBF1F6D9
:10369000002724E007EB4701A068405C3038642134
:1036A00000FB01F907EB4700401CA168085C3038BB
:1036B00000EB800009EB400907EB4700801CA16884
:1036C000085C303881444A460A215046FDF70CFA1E
:1036D0000546002D02DA4FF0FF30A8E77F1CB74205
:1036E000D8DB06EB46016068401A012810D106EBD2
:1036F0004601A068405CA0F130094A4604215046CA
:10370000FDF7F2F90546002D23DA4FF0FF308EE782
:1037100006EB46016068401A02281AD106EB460102
:10372000A068405C303800EB80004FEA400906EBAF
:103730004600401CA168085C303881444A46072195
:103740005046FDF7D1F90546002D02DA4FF0FF3063
:103750006DE700206BE72DE9F04105460E46174660
:1037600037B1FCF759FD05210160881FBDE8F081E4
:10377000032204213046FDF7B7F90446002C02DA93
:103780004FF0FF30F2E7A8684078421E042130462F
:10379000FDF7AAF90446002C02DA4FF0FF30E5E706
:1037A000A8680078421E04213046FDF79DF90446C2
:1037B000002C02DA4FF0FF30D8E7A86882780821A1
:1037C0003046FDF791F90446002C02DA4FF0FF3045
:1037D000CCE70020CAE72DE9F04104460F46002659
:1037E000A56806E039462846226900F007F8064435
:1037F0002D69002DF6D13046BDE8F0812DE9F04766
:1038000004460F4692464FF0000807B9012794F985
:103810000000082825D2DFE800F004090E13181B69
:103820002022606800F077F880461CE0606800F0B5
:103830004AF8804617E0606800F042F8804612E0DF
:10384000606800F05FF880460DE01420BDE8F08766
:10385000A06800F046F8804605E00420F6E70C205A
:10386000F4E70020F2E700BFBAF1000F09D094F9A5
:1038700000003946FDF794FF06467D1E701980440E
:103880001CE094F90000394600F0B2FB0646012125
:1038900001FA06F52078032808D1606800EBD071A2
:1038A00005EB6101491E91FBF5F904E060682844CD
:1038B000401E90FBF5F9301D09FB00884046C5E726
:1038C0000146C800704710B5014601EBD174621083
:1038D00002EB420303EBC20001F0010303B1801DC0
:1038E00010BD70B505462846FFF718FC0446802C2D
:1038F00001D20C2070BDB4F5804F01D21420F9E73D
:103900001C20F7E7014601EBD170401000EB80036B
:1039100003EBC00070470146032391FBF3F202EB77
:103920008203580002EB4203CB1A012B02D0022B78
:1039300004D101E0001D02E0C01D00E000BF00BF97
:1039400070472DE9F0410646002400BF2546294670
:103950003046FFF740FF074607F1070831794FEA85
:10396000E87208EB5272D01000F000FB044615B963
:10397000012C00DD641EAC42E8DC2046BDE8F0818D
:1039800070B505465DB1AC6804E026692046FFF7D6
:10399000A7F93446002CF8D12846FCF784FC70BD0A
:1039A00070B504460D462946204600F073F80646D9
:1039B000002E02DA4FF0FF3070BD206928B1214699
:1039C0002846FFF745FA064604E021462846FFF759
:1039D000EAF90646002E02DA4FF0FF30ECE700204D
:1039E000EAE72DE9F0410646FDF7BDF8044614B9B3
:1039F0000020BDE8F08121463046FFF7D1FF0546A3
:103A0000002D04DA2046FDF7A4F80020F1E7204657
:103A1000FDF7C2F807462046FDF79BF83846E8E771
:103A200001460868704770B50446002560690128A2
:103A300006D1002211460620FFF75FF9054609E08E
:103A40006069022806D104F1180201210720FFF75E
:103A500054F9054615B94FF0FF3070BDA0680078E5
:103A6000042807D0A0680078052803D0A068286142
:103A7000A56004E0A06800692861A06805610020D5
:103A8000EBE70146002903DB032901DC0120704735
:103A90000020FCE770B504460D46206940B1294678
:103AA0002046FFF721FB002815DA4FF0FF3070BDEC
:103AB000606938B12046FFF7B6FF002802DA4FF000
:103AC000FF30F4E729462046FFF7D6FA002802DA4D
:103AD0004FF0FF30EBE70020E9E770B505460E46F2
:103AE000002D05DB282D03DC002E01DB032E05DD78
:103AF000FCF792FB05210160002070BD1C20FCF743
:103B0000A3FB04460CB90020F7E70020A060E060AA
:103B100025602671206160612046EEE770B505469C
:103B20000E46002D01DD042D00DD11E03146284652
:103B3000FDF7F8FD00B90BE031462846FFF7CDFF51
:103B400004460CB9002070BD012020612046FAE730
:103B5000FCF762FB052101600020F4E770B5054623
:103B60000C46286918B9002C01DB282C05DDFCF770
:103B700053FB05210160881F70BD2C600020FBE70E
:103B800010B504465CB1E068FCF78DFB2069FCF7DA
:103B90008AFBE069FCF787FB2046FCF784FB10BD3D
:103BA00070B501464D68086AA84215DA8D69086A41
:103BB00090FBF5F605FB16038D69086A90FBF5F29C
:103BC000C8690068904201DC48690344C86900EB99
:103BD00003108068845C1BE0D1E9010528440D6A6C
:103BE000A84213DD4D68086A401B8D6990FBF5F60D
:103BF00005FB16034D68086A401B8D6990FBF5F2C2
:103C0000C86900EB0310C068845C01E0002070BD4F
:103C1000086A401C08622046F9E770B586B0054680
:103C20002420FCF711FB044614B9002006B070BD37
:103C30002846FFF7D6FEE060E06820B92046FCF792
:103C400032FB0020F2E7297901AA286800F046F942
:103C50002868206001986061DDE901014843DDE9E1
:103C6000041201FB02006060049901980844039962
:103C70004843A060A068FCF7E7FA2061206938B9E2
:103C8000E068FCF710FB2046FCF70DFB0020CDE7B9
:103C9000049901980844A0611021A069FCF7C0FABA
:103CA000E061E06920B92046FFF76AFF0020BDE728
:103CB00001A9D4E90323E06900F060FC0646002E68
:103CC00004DA2046FFF75CFF0020AFE70020206207
:103CD0002046ABE72DE9F14F0098C0EBC0006E49DC
:103CE00051F8204004FB04F0FCF7AEFA054615B984
:103CF0000020BDE8F88F04FB04F12846FCF758FCCF
:103D000000231A462146284602F0E6FAE21F002365
:103D10002146284602F0E0FAE31F00222146284609
:103D200002F0DAFA2E46E01F04FB005A00270BE0EF
:103D3000C020F071C021A4F108003154C0208AF8DD
:103D400007002644A2447F1C072FF1DBC4EBC4010B
:103D50004819C0220821FCF723FC05EBC401A1F19E
:103D60000800C0220821FCF71BFCA4F1080104FB99
:103D70000150C0220821FCF713FC05EBC40084228B
:103D80000921FCF70DFC04EBC4012944A1F1080052
:103D900084220821FCF704FC05F10806002703E053
:103DA0008420307026447F1C082FF9DBE01F04FBC1
:103DB000005000F10806002703E0842030702644FC
:103DC0007F1C072FF9DB04EB440005EB400000F1FA
:103DD000080605EBC40000F1060A4FF001080EE0EA
:103DE00008F0010040F09000307008F0010040F051
:103DF00090008AF80000761CA24408F10108A4F1A2
:103E00000F004045ECDC22462946009800F058F9A6
:103E10000098072838DB009800F0D2F88346A4F118
:103E20000B0004FB0056D9464FF000080FE00027B6
:103E300009E009F0010040F0880004FB078170549C
:103E40004FEA59097F1C032FF3DB08F10108B8F191
:103E5000060FECDB2819A0F10B06D946002711E06C
:103E60004FF0000809E009F0010040F0880006F872
:103E700008004FEA590908F10108B8F1030FF2DB15
:103E800026447F1C062FEBDB8121A4F10800604350
:103E90000830295428462CE77086000810B50246E1
:103EA000C2EBC200064B03EB80000C3050F821003F
:103EB000C2EBC203024C04EB83035B68181A10BD0B
:103EC000708600080246C2EBC200034B03EB800081
:103ED0000C3050F821007047708600082DE9F0473B
:103EE000074688461446184800EB471050F83850EB
:103EF000154800EB471000EBC800466841463846BD
:103F0000FFF7CCFF814641463846FFF7DBFF82468C
:103F100056B9256099FBF5F060609AFBF5F0A0605A
:103F200000202061E0600CE02560A81999FBF0F00A
:103F30006060A8199AFBF0F0A060E6606068401C21
:103F40002061BDE8F08700001C8B00080246002AB3
:103F500001DB072A01DD00207047034800EB411018
:103F600050F82200F8E700000C92000870B50246F5
:103F70000B46012113E0C1EBC1000B4D05EB8000A6
:103F80000C3050F82300C1EBC105074E06EB850548
:103F90006D682C1A944201DB084670BD491C282923
:103FA000E9DD2820F9E70000708600080146C1EB32
:103FB000C100024A02EB80008068704770860008EA
:103FC0000146072901DB282901DD00207047C81FB1
:103FD000014A52F82000F9E7849100080146C1EB3C
:103FE000C100024A52F820007047000070860008A5
:103FF00070B506460D463046FFF743FD08B9002070
:1040000070BD092D01DC002404E01A2D01DC01241F
:1040100000E0022406EB4600024901EB800050F864
:104020002400EDE7EC8A00082DE9F04105460E4634
:104030002846FFF726FD10B90020BDE8F081092EC3
:1040400001DC002404E01A2E01DC012400E002243B
:1040500005EB4500064901EB800050F82480012063
:1040600000FA08F0471E032D00D17F003846E4E730
:10407000EC8A000810B50446012C01DB282C01DD78
:10408000002010BD2046FFF725FEFAE7F0B50C46EC
:104090009F1E07FB0427BF1E3844084E002509E079
:1040A000002102E0775C4754491C0529FADB2044D3
:1040B000761D6D1C052DF3DBF0BD00008C92000811
:1040C0002DE9F74F04469246022C01DABDE8FE8F37
:1040D0002C4800EBC40040682A4951F83410461AB5
:1040E000002E01DA022707E0264850F83400AAEB38
:1040F000000090FBF6F0871C07FB07F0C01E0128AC
:104100000BD1204850F8345050F8348043462A46AA
:1041100051460198FFF7BAFFD8E71A4850F8349093
:1041200001250DE04B46062251460198FFF7AEFFF0
:1041300006234A4651460198FFF7A8FFB1446D1C7B
:10414000781EA842EEDC0F4850F834B04FF000085B
:1041500012E00C4850F83490002507E05B464A46D0
:1041600051460198FFF792FFB1446D1C781EA8429A
:10417000F4DCB34408F10108781E4045E9DC00BFD7
:10418000A4E700003C90000808B50121042000F0DD
:10419000D5F80220ADF8000010208DF803000220B1
:1041A0008DF8020069462D48FCF763FF01210420C9
:1041B00000F0C4F81020ADF8000004208DF80300D2
:1041C00002208DF8020069462448FCF752FF0121C5
:1041D000042000F0B3F82020ADF8000010208DF886
:1041E000030002208DF8020069461C48FCF741FFDD
:1041F0000121042000F0A2F84020ADF800001020BA
:104200008DF8030002208DF8020069461348FCF780
:1042100030FF0121042000F091F88020ADF800006B
:1042200010208DF8030002208DF8020069460B482B
:10423000FCF71FFF0121102000F080F84FF4005020
:10424000ADF8000010208DF8030002208DF8020068
:1042500069460348FCF70DFF08BD00000008014057
:104260000010014010B501F04FF9FFF78DFFFDF789
:1042700035FF0020FDF7D2FE0020FDF7DDFEFCF744
:1042800059FE02F0CDF84FF480521A49082001F08F
:104290006BF902F05DF84FF400511748FCF77DFF11
:1042A0000A2001F076F9FEF745FAFEF7D4F8FEF79A
:1042B000D8F84120FDF735F84FF400510E48FCF7CF
:1042C0006EFF0A2001F065F94FF400510A48FCF72F
:1042D00064FF0A2001F05DF94FF400510648FCF735
:1042E0005EFF0A2001F055F94FF400510248FCF737
:1042F00054FF10BD000C01400010014029B1064AD6
:1043000052690243044B5A6104E0034A52698243F2
:10431000014B5A61704700000010024029B1064A63
:1043200012690243044B1A6104E0034A1269824392
:10433000014B1A61704700000010024029B1064A83
:1043400092690243044B9A6104E0034A92698243F2
:10435000014B9A61704700000010024029B1064AE3
:10436000D2680243044BDA6004E0034AD268824315
:10437000014BDA60704700000010024030B50021A8
:104380000022002400232D4D6D6805F00C0121B1A1
:10439000042905D0082923D105E0294D056022E034
:1043A000274D05601FE0254D6D6805F47012234D03
:1043B0006D6805F48034022505EB92421CB9214D4D
:1043C000554305600BE01D4D6D6805F400351DB1CA
:1043D0001C4D5543056002E0194D5543056002E050
:1043E000174D056000BF00BF144D6D6805F0F0016A
:1043F0000909154D6B5C0568DD4045600F4D6D6822
:1044000005F4E061090A104D6B5C4568DD4085608C
:104410000A4D6D6805F46051C90A0B4D6B5C456827
:10442000DD40C560054D6D6805F44041890B074DC1
:104430006B5CC568B5FBF3F5056130BD001002404B
:1044400000127A0000093D00140000202400002022
:104450002DE9F05F82460C4693461D462B480068C6
:1044600008B900F05DF81E2C03D94FF0FF30BDE80D
:10447000F09F21462846FCF79BF8A01E2449085CC3
:1044800010B9204601F062F9A01EC0EB401021498E
:1044900000EB01094FF0000833E01BF80800297811
:1044A00048401D490F5CFF2F12D001260EE0A01BD3
:1044B00019F800003844FF21B0FBF1F201FB1200B3
:1044C0001649085CA95D4840A855761CA642EED363
:1044D000621E691C2846FBF7EBFFFF2F0CD099F8F2
:1044E00000003844FF21B0FBF1F201FB12000B4940
:1044F000095C601E295402E00021601E295408F165
:104500000108D045C9D30020B1E70000B008002061
:1045100053150020D0110020D0100020D00F002013
:1045200010B500F00DF81D210348FCF741F80120FB
:104530000249086010BD000053150020B00800209B
:1045400000220C4B83F8FF20FF220B4B1A70012036
:1045500000210CE0074B5854074B1954400000F45D
:10456000807212B140F21D125040C0B2491CFF29A6
:10457000F0D37047D00F0020D01000202DE9FF4F5E
:1045800081B083460C46D4F804A0D4F808905F4666
:10459000DDF80C80049E00250AE04B464246514659
:1045A0003846009600F023F8D0444E4410376D1C76
:1045B0002068A842F1DCE06818B9002005B0BDE829
:1045C000F08FD4F810A0D4F8089000250AE04B46EC
:1045D000424651463846009600F009F8D0444E4411
:1045E00010376D1CE068A842F1DC0020E6E72DE9F9
:1045F000F04104460D4617461E46DDF8188025603A
:10460000A7606660C4F80C8043463A4631462846A7
:10461000FFF71EFFBDE8F0812DE9F04106460025B9
:1046200080212348FCF7B9FD7E2000EA460040F0D7
:104630008007082417E040211D48FCF7AEFD07F075
:10464000800020B120211A48FCF7A9FD03E02021B9
:104650001748FCF7A2FD40211548FCF7A0FD78069D
:10466000070E601EC4B2002CE5DC082413E04021D4
:104670000F48FCF792FD6806050E40210C48FCF738
:104680008EFD10210A48FCF77FFD012801D145F07D
:104690000105601EC4B2002CE9DC80210448FCF74F
:1046A0007EFD40210248FCF77AFD2846BDE8F081F6
:1046B000000801407047000070B5044600251BE06B
:1046C00004F0800020B101210D48FCF768FD03E0F3
:1046D00001210B48FCF761FDFCF708FE02210848A8
:1046E000FCF75DFDFCF702FE02210548FCF755FDD5
:1046F0006006040E681CC5B2082DE1DB70BD000029
:10470000000C014070B505460C4600262846FFF710
:1047100083FF064646EA0401284600F0A1FE70BD6C
:1047200010B500F001F810BD0CB50020019000900C
:104730003348006840F480303149086000BF304899
:10474000006800F4003000900198401C019000982F
:1047500018B90198B0F5A06FF1D12948006800F4AC
:10476000003010B10120009001E00020009000987E
:10477000012843D12348006840F010002149086017
:104780000846006820F0030008600846006840F012
:10479000020008601A4840681949486008464068A5
:1047A00048600846406840F48060486008464068B9
:1047B00020F47C1048600846406840F4E8104860E7
:1047C0000846006840F08070086000BF0C48006830
:1047D00000F000700028F9D00948406820F003007C
:1047E000074948600846406840F00200486000BF42
:1047F0000348406800F00C000828F9D10CBD000007
:1048000000100240002002402DE9F74F86B0064616
:104810000F4601203968FFF7EBFB04900020396850
:10482000FFF7E6FB039002203968FFF7E1FB0290F7
:10483000751C72E02846089900F098F98046B8F196
:10484000030F00D16CE0B8F1000F2DD12C4600E031
:10485000641C20783038C0B20A28F9DB2046089959
:1048600000F084F9022803D10298001D019001E0B4
:1048700000200190A81BFFF723F88346601BFFF779
:104880004AF85844001D03990144019801EB000BBC
:10489000A01BFFF715F8ABEB00000590059800286A
:1048A00000DA3DE0254638E0B8F1010F34D12C465E
:1048B00000E0641C207800F0800010B14FF0FF3061
:1048C00002E02078204908560028F2DA20460899AC
:1048D00000F04CF9022803D10298001D019001E07C
:1048E00000200190A81BFEF7EBFF8346601BFEF73C
:1048F000EAFF5844001D04990144019801EB000BA4
:10490000A01BFEF7DDFFABEB00000590059800282B
:1049100000DA05E0254600E06D1C2878002889D1E2
:1049200000BFA5EB060A3346524602213846FEF781
:1049300018FA8146B9F1000F04DA4FF0FF3009B0E0
:10494000BDE8F08F5046FAE7ED8500082DE9F74FF6
:1049500082B006460F4601203968FFF749FB0190F7
:1049600000203968FFF744FB0090344635E020789A
:104970003038C0B20A282FDA254600E06D1C2878AE
:104980003038C0B20A28F9DBA01BFEF79CFF834633
:10499000281BFEF7C0FF5844001D009901442878E9
:1049A00000F0800010B14FF0FF3002E028782F4A6D
:1049B0001056002802DB0098001D00E0002001EBEB
:1049C000000BA81BFEF77FFFABEB000ABAF1000F4C
:1049D00000DA0EE02C4600E0641C207800F0800035
:1049E00010B14FF0FF3002E020782049085600282F
:1049F000BDDA00BFA4EB0608207838B3207800F0B9
:104A0000800010B14FF0FF3002E0207817490856BF
:104A100000281BDA4046FEF756FF001D019900EB07
:104A2000010B0120FEF74CFF834408F10100FEF763
:104A300047FFABEB000ABAF1000F07DD39463046FD
:104A4000049AFFF7E1FE05B0BDE8F08F3346424619
:104A500001213846FEF785F98146B9F1000F02DAE7
:104A60004FF0FF30EFE74046EDE70000ED8500082E
:104A70002DE9F047044688469146254600E0AD1CE6
:104A80004946284600F072F80328F8D02F1B234629
:104A90003A4603214046FEF764F90646002E03DA43
:104AA0004FF0FF30BDE8F0873846FBE72DE9F74FC0
:104AB00082B0054688460020D8F80010FFF798FA23
:104AC00001902E4600E0761C30783038C0B20A28BB
:104AD000F9DB741B3046049900F048F80746022FB2
:104AE0001AD12046FEF717FF001D019900EB010BBC
:104AF0000120FEF7E5FE8344601CFEF7E1FEABEB10
:104B0000000ABAF1000F07DD41462846049AFFF774
:104B10007BFE05B0BDE8F08F012F18D12046FEF7CF
:104B2000FAFE001D019900EB010B0120FEF7CBFE00
:104B30008344601CFEF7C7FEABEB000ABAF1000F1E
:104B400005DD41462846049AFFF700FFE1E72B46C2
:104B5000224600214046FEF704F98146B9F1000FD4
:104B600002DA4FF0FF30D4E72046D2E730B50346F3
:104B70000D46197811B94FF0FF3030BDA1F130006A
:104B8000C0B20A2801DA0020F7E701F0800010B176
:104B90004FF0FF3001E010484056002801DB0120B3
:104BA000EBE7032D15D15C789CB144EA012248F271
:104BB0004010824203D349F6FC70824207D94EF27C
:104BC0004000824205D34EF6BF30824201D8032016
:104BD000D3E70220D1E70000ED8500082DE9F04180
:104BE0000546884616462FE031462846FFF7BEFFA9
:104BF000044634B9324641462846FFF757FF074678
:104C000019E0012C06D1324641462846FFF79EFEA8
:104C1000074610E0032C08D1032E06D13246414648
:104C20002846FFF725FF074605E03246414628465D
:104C3000FFF7EAFD074607B909E0002F03DA4FF056
:104C4000FF30BDE8F0813D4428780028CCD100BF7A
:104C50000020F6E72DE9F0470446884616461F4631
:104C60000CB1207830B9FBF7D7FA05210160881F15
:104C7000BDE8F08797B93146204600F0DFFC0546D5
:104C800015B94FF0FF30F3E7324641462846FFF7AB
:104C9000A5FF81462846FBF706FB05E03246414664
:104CA0002046FFF79BFF81464846E1E7042808D1EC
:104CB0004FF0E021096941F004014FF0E022116159
:104CC00007E04FF0E021096921F004014FF0E022F4
:104CD000116170477047000010B51348006840F03C
:104CE00001001149086008464068104908400E4913
:104CF0004860084600680E4908400B4908600846AD
:104D0000006820F4802008600846406820F4FE0017
:104D100048604FF41F008860FFF702FD4FF000600D
:104D20000449086010BD0000001002400000FFF8B8
:104D3000FFFFF6FE08ED00E021B1028842F080029C
:104D4000028004E002884FF67F731A4002807047A9
:104D500021B1028842F00102028004E002884FF68D
:104D6000FE731A400280704731B1B0F8442042F41B
:104D70000042A0F8442005E0B0F84420C2F30E023F
:104D8000A0F8442070471AB183890B43838102E065
:104D900083898B438381704710B5044668488442F9
:104DA00008D10121C014FFF7D9FA0021E014FFF760
:104DB000D5FAC4E0B4F1804F08D101210846FFF7CD
:104DC000ADFA00210120FFF7A9FAB8E05D4884425E
:104DD00008D101210220FFF7A1FA00210220FFF7EC
:104DE0009DFAACE05848844208D101210420FFF725
:104DF00095FA00210420FFF791FAA0E0534884427D
:104E000008D101210820FFF789FA00210820FFF7C7
:104E100085FA94E04E48844208D101211020FFF722
:104E20007DFA00211020FFF779FA88E04948844292
:104E300008D101212020FFF771FA00212020FFF77F
:104E40006DFA7CE04448844208D101214014FFF708
:104E500085FA00216014FFF781FA70E03F48844230
:104E600009D10121C804FFF779FA00214FF400208D
:104E7000FFF774FA63E03A48844209D1012108053A
:104E8000FFF76CFA00214FF48010FFF767FA56E045
:104E90003448844209D101214805FFF75FFA002117
:104EA0004FF40010FFF75AFA49E02F48844208D126
:104EB00001214020FFF732FA00214020FFF72EFAAF
:104EC0003DE02A48844208D101218020FFF726FADC
:104ED00000218020FFF722FA31E02548844208D1E2
:104EE00001218015FFF71AFA0021A015FFF716FA25
:104EF00025E02048844209D101210804FFF72EFA59
:104F000000214FF48030FFF729FA18E01A48844254
:104F100009D101214804FFF721FA00214FF40030A4
:104F2000FFF71CFA0BE01548844208D101218804E0
:104F3000FFF714FA00214FF48020FFF70FFA10BD9D
:104F4000002C01400004004000080040000C00401C
:104F5000001000400014004000340140004C0140AB
:104F6000005001400054014000180040001C004067
:104F70000020004000400140004401400048014042
:104F800070B5002400220023058C4FF6FE763540D4
:104F90000584028C8388048B4FF68F752C40B51ED8
:104FA0002C400D882C43751E2A400D892A434D88BC
:104FB0002A43144DA8420BD0134DA84208D0134DDC
:104FC000A84205D0124DA84202D0124DA84213D1DA
:104FD0004FF6F7752A404D892A434FF6FB752A4054
:104FE0008D882A434FF6FF652B404FF6FF552B4027
:104FF0008D892B43CD892B4383800483CD8885867F
:10500000028470BD002C014000340140004001408A
:1050100000440140004801400A460021018B4FF640
:10502000F773194011430183704700000022028882
:105030001D4B98420ED01D4B98420BD0B0F1804FC3
:1050400008D01B4B984205D01A4B984202D01A4BFD
:10505000984204D14FF68F731A404B881A43174B6E
:10506000984207D0164B984204D04FF6FF431A409F
:10507000CB881A4302808B8883850B8803850A4B73
:1050800098420BD0094B984208D00E4B984205D05D
:105090000D4B984202D00D4B984201D10B7A0386FA
:1050A0000123838270470000002C0140003401403E
:1050B0000004004000080040000C004000100040C8
:1050C00000140040004001400044014000480140FD
:1050D00010B500BF40F225510B4800F04CF890B1DC
:1050E0000948001D0088C1B2084802880088401C99
:1050F000064B18800648815418460088802802D143
:1051000000201946088010BD0038014070080020BA
:10511000340D002070B505460E4600240CE000BF9B
:105120004021074800F01AF80028F9D0295D04480A
:1051300000F0DCF8601C84B2B442F0DB70BD00000B
:105140000038014021B1828942F40052828104E09A
:1051500082894DF6FF731A40828170470246002013
:10516000B1F5007F00D100BF13880B400BB10120C7
:1051700000E00020704770B502460024002300259F
:10518000002040F66A16B14200D100BFC1F34215BB
:1051900001F01F03012606FA03F3012D02D19689BF
:1051A000334006E0022D02D1168A334001E0968A90
:1051B00033400C12012606FA04F41688344013B169
:1051C0000CB1012000E0002070BDF0B503460024C2
:1051D00000260025002040F66A17B94200D100BF22
:1051E0001846C1F3421401F01F06012707FA06F51D
:1051F000012C01D10C3004E0022C01D1103000E070
:1052000014301AB107682F43076002E00768AF4304
:105210000760F0BD2DE9F04786B005460E46002434
:10522000A24600BFA1460027B08900B100BF2F46AB
:105230002C8A4CF6FF700440F08804432C82AC8921
:105240004EF6F3100440B088318908437189084351
:105250000443AC81AC8A4FF6FF400440B08904435C
:10526000AC8201A8FFF78AF81F48874202D1DDF817
:1052700010A001E0DDF80CA0A88900F4004040B1C6
:105280000AEBCA0000EB0A1031684900B0FBF1F8E4
:1052900007E00AEBCA0000EB0A1031688900B0FB96
:1052A000F1F86420B8FBF0F004012009642101FB4F
:1052B0001089A88900F4004040B1322000EBC900F9
:1052C000B0FBF1F000F00700044308E0322000EBEF
:1052D00009106421B0FBF1F000F00F0004432C81B1
:1052E00006B0BDE8F087000000380140C1F30802B5
:1052F00082807047F0B58FB0054600240027202239
:10530000304907A8FBF71AF92E46012144F20400A0
:10531000FFF714F801210846FEF7F0FF4FF4007084
:10532000ADF8180003208DF81A0018208DF81B0026
:1053300006A92548FBF79DFE4FF48060ADF81800E4
:1053400004208DF81B0006A91F48FBF792FE00BF42
:1053500008E007A850F82400B04201D1012700E07E
:1053600000BF641C082CF4DB0FB94FF4E136029641
:105370000020ADF80C00ADF80E00ADF81000ADF84F
:1053800014000C20ADF8120002A91048FFF742FFEC
:10539000012240F225510D48FFF717FF01210B486C
:1053A000FFF7D0FE25208DF8040003208DF80500BE
:1053B0008DF8060001208DF8070001A8FCF7DEFD3E
:1053C0000FB0F0BD3C8400080008014000380140E7
:1053D00000BFFEE738B515E069465220FDF780F9B9
:1053E000044664B169465220FDF77AF9044634B1A7
:1053F00069465220FDF774F9044604B138BD0A200D
:1054000000F0C7F8E8E710B50446C4F1FF04552CD6
:1054100009DA04EB440204EB4401C1F1FF0000216E
:1054200000F0BCFF10BDAA2C0CDAA4F15500C4B2E8
:1054300004EB4400C0F1FF0204EB4401002000F043
:10544000ADFFEFE7A4F1AA00C4B204EB4402C2F13D
:10545000FF0104EB4400002200F0A0FFE2E700009F
:105460002DE9F04106460D4640212648FBF795FE02
:1054700080212448FBF791FE7E2000EA460708249D
:1054800017E007F0800020B120211E48FBF787FEBF
:1054900003E020211B48FBF780FE40211948FBF761
:1054A0007EFE7806070E40211648FBF776FE601E4A
:1054B000C4B2002CE5DC082417E005F0800020B120
:1054C00020211048FBF76BFE03E020210D48FBF77D
:1054D00064FE40210B48FBF762FE6806050E402182
:1054E0000848FBF75AFE601EC4B2002CE5DC8021A0
:1054F0000448FBF754FE40210248FBF750FEBDE88C
:10550000F08100000008014008B500F04FF80121CB
:105510000420FEF713FF0120ADF8000003208DF8F2
:10552000020010208DF8030069460348FBF7A1FD37
:10553000012000F00FF808BD0008014010B5002060
:1055400000F008F8C82000F053F8012000F002F83D
:1055500010BD000010B50446224601210148FBF7AA
:1055600020FE10BD00080140F8B506460C46154661
:1055700001213046FEF7E2FEADF8005003208DF821
:10558000020048208DF8030069462046FBF771FDB4
:10559000F8BD002107E0002200E0521C4EF6602317
:1055A0009A42FAD3491C8142F5D3704710B56FF087
:1055B0000400FFF77BFB0A4800680A49B0FBF1F0E2
:1055C000094908700846007800EB4001C1EBC010A3
:1055D0004FF6FF7101EAC0000449088010BD0000C9
:1055E0000000002000127A006C0800206E080020E5
:1055F0000146114A12884A434FF0E0235A610022C3
:105600009A611A46126942F001021A6100BF4FF016
:10561000E022106900F001021AB100F48032002A81
:10562000F5D04FF0E022126922F001024FF0E023A2
:105630001A6100229A6170476E0800202DE9F0413E
:1056400007468846384600F0BAFE054615B90020E0
:10565000BDE8F0812C4612E041462046FFF786FA6D
:105660000646032E01D1A41C09E02078612805DB41
:1056700020787A2802DC207820382070641C20787A
:105680000028E9D12846E3E770B588B00646062130
:1056900006A800F0A9F8062306AA0D2102A8FBF728
:1056A0009EFD002500243CE002A810F814004128CB
:1056B0000CDB02A810F81400462807DC02A810F83A
:1056C0001400801F02A901F814006D1C012000EBDA
:1056D000440002A9085C412810DB012000EB4400D3
:1056E000085C46280ADC012000EB4400085C801FAF
:1056F000012101EB440102AA50546D1C02A911F8CA
:105700001410012202EB440202AB9A5C11440722FE
:1057100002FB151000EBD071C1F347013155002594
:10572000641C062CC0DB08480068FDF7BDFA0020A9
:1057300002230246012100903046FDF761FA02493A
:10574000086008B070BD00006808002030B59FB048
:10575000014601230093002027E00124431C4DF85B
:105760002340024612E05DF822301B4CE35C034408
:10577000FF24B3FBF4F504FB1533184CE35C541E13
:105780005DF8244063404DF82230521E002AEAD1D1
:10579000114C009BE35C0344FF24B3FBF4F504FBD2
:1057A00015330E4CE35C0093401C8842D5D3002097
:1057B0000AE05DF82030084CE45C8B1EC3EB431319
:1057C000074D2B441C54401C8842F2D901248B1EE7
:1057D000044DEC541FB030BDD0100020D00F00207D
:1057E000D0110020531500202DE9F04105460C464C
:1057F0001948007820B900F033F8012016490870E4
:1058000021462846FAF7D4FE22E000271CE00121B9
:105810001248FBF734F900BF02211048FBF792F859
:105820000028F9D00D48FBF789F80646601E285C71
:105830004006010E601E2954285C06F00101084351
:10584000611E6854781CC7B2082FE0DB601E84B26A
:10585000002CDAD1BDE8F0817C080020002801404E
:1058600000B587B001214FF48260FEF767FD01208B
:10587000ADF8040000208DF8070001A91C48FBF7D3
:10588000F8FB1C48FBF722F8002002908DF80C0072
:105890008DF80D004FF46020049000200590012049
:1058A0008DF8180002A91348FBF760F80121114890
:1058B000FBF700F80F48FBF7DDF800BF0D48FBF7DA
:1058C0004AF80028FAD10B48FBF7E4F800BF094872
:1058D000FBF72AF80028FAD1072301220A210548FC
:1058E000FBF76CF801200449087007B000BD000008
:1058F00000100140002801407C0800209EB0FEF707
:10590000B1FCFCF773FB01201023E6A200210090FC
:105910000846FCF75FFD01201023E5A21946009020
:105920000020FCF757FD01201023E4A22021009065
:105930000020FCF74FFD01201023E4A2302100904D
:105940000020FCF747FDFCF773FC012000F0DCFCB5
:10595000FFF7F4FD4FF48051E048FBF7CFFC10B99E
:105960000120DF490870DFA70FF27C380FF2803981
:105970000FF28C3A0FF2943BE7A01D90EAA01C9026
:10598000EDA01B90F7A01A90FAA5FBA640210AA84B
:10599000FAF730FEFBA10AA8FAF739FD29460AA852
:1059A000FAF735FDFAA10AA8FAF731FD31460AA83F
:1059B000FAF72DFDF7A10AA8FAF729FDFCF716FB67
:1059C00001201023F4A2002100900846FCF702FDFC
:1059D000012010232A46194600900020FCF7FAFC0B
:1059E00001201023F0A2202100900020FCF7F2FCFF
:1059F000012010233246302100900020FCF7EAFC01
:105A0000FCF716FC0321EBA0FFF784FB6420FFF7F3
:105A1000EFFD0321E7A0FFF77DFB6420FFF7E8FD22
:105A200002E06420FFF7E4FD39464046FBF78AFABE
:105A30000028F6D102E06420FFF7DAFD3946484637
:105A4000FBF780FA0028F6D102E06420FFF7D0FDD2
:105A500039465046FBF776FA0028F6D102E064207A
:105A6000FFF7C6FD39460AA8FBF76CFA0028F6D105
:105A7000FCF7BCFA01201023C7A2002100900846C1
:105A8000FCF7A8FC01201023CBA2194600900020AF
:105A9000FCF7A0FC01201023CAA2202100900020C6
:105AA000FCF798FC01201023C9A2302100900020AF
:105AB000FCF790FCFCF7BCFB02E06420FFF798FDCC
:105AC00039465846FBF73EFA0028F6D102E064203A
:105AD000FFF78EFD39461D98FBF734FA0028F6D102
